:020000040000FA
:0400000007EF00F016
:0A0008004B829BED0EF0D2EF0DF0DD
:1006000000232054696D652020202020455620536A
:1006100050200A0D004E6F204461746120666F7592
:100620006E64202020200020202020202020202058
:10063000202020202020200053554343455353467B
:10064000554C4C592E2E2E005468652064617461FF
:10065000206973002048483A4D4D3A5353200044D6
:100660004F574E4C4F4144454400636C6561726581
:10067000640054494D4500474552004750005350CF
:10068000002300003850D8A448EF03F04AEF03F0ED
:1006900067EF03F04150D00F3B6E3B500A0DF35013
:1006A0004224D00F3B6E4450D00F3A6E3A500A0DA0
:1006B000F3504524D00F3A6E4750D00F396E395061
:1006C0000A0DF3504824D00F396E010E386E010E1A
:1006D00005EC0DF00F6E0F04D8A471EF03F073EF6B
:1006E00003F0ADEF03F03750D8A479EF03F07BEFC0
:1006F00003F086EF03F03B2A180E3B18D8A483EFD3
:1007000003F085EF03F086EF03F03B6A3704D8A4CB
:100710008CEF03F08EEF03F099EF03F03A2A3C0ED2
:100720003A18D8A496EF03F098EF03F099EF03F08E
:100730003A6A020E3718D8A4A0EF03F0A2EF03F034
:10074000ADEF03F0392A3C0E3918D8A4AAEF03F014
:10075000ACEF03F0ADEF03F0396A020E0F18D8A426
:10076000B4EF03F0B6EF03F0C1EF03F0372A030E46
:100770003718D8A4BEEF03F0C0EF03F0C1EF03F0C9
:10078000376A0B0E0F18D8A4C8EF03F0CAEF03F0B6
:1007900031EF04F03BC001F0026A000E046E0A0E55
:1007A000036EDAEC0BF001C00BF002C00CF03BC0A2
:1007B00001F0026A000E046E0A0E036E79EC0BF073
:1007C0000138F00B0B103B6E3BC002F0020E2EEC1A
:1007D0000FF03AC001F0026A000E046E0A0E036EBA
:1007E000DAEC0BF001C00BF002C00CF03AC001F0E3
:1007F000026A000E046E0A0E036E79EC0BF00138EB
:10080000F00B0B103A6E3AC002F0010E2EEC0FF016
:1008100039C001F0026A000E046E0A0E036EDAECB3
:100820000BF001C00BF002C00CF039C001F0026AFD
:10083000000E046E0A0E036E79EC0BF00138F00B1B
:100840000B10396E39C002F0000E2EEC0FF0010EC5
:10085000406E386A000E016E010EBBEC0EF003EF25
:1008600006F00C0E0F18D8A438EF04F03AEF04F09D
:100870003FEF04F0010E406E386A03EF06F0540EAD
:10088000036E0350D8A4060E046E800E056E3FEC76
:100890000DF026C00BF027C00CF028C00DF029C0C9
:1008A0000EF0262A000E2722282229220E500D1093
:1008B00009E1F40E0B5C010E0C58D8B062EF04F0A5
:1008C00064EF04F0CFEF04F0C00E096E200E59EC77
:1008D0000FF0C10E096E3BC001F0026A000E046EFB
:1008E0000A0E036E79EC0BF00150300F59EC0FF04B
:1008F000C20E096E3BC001F0026A000E046E0A0EC1
:10090000036EDAEC0BF00150300F59EC0FF0C30E10
:10091000096E3A0E59EC0FF0C40E096E3AC001F0A0
:10092000026A000E046E0A0E036E79EC0BF00150A1
:10093000300F59EC0FF0C50E096E3AC001F0026A93
:10094000000E046E0A0E036EDAEC0BF00150300F4D
:1009500059EC0FF0C60E096E3A0E59EC0FF0C70EA7
:10096000096E39C001F0026A000E046E0A0E036EB1
:1009700079EC0BF00150300F59EC0FF0C80E096EF6
:1009800039C001F0026A000E046E0A0E036EDAEC42
:100990000BF00150300F59EC0FF0EDEF05F0375030
:1009A000D8A4D5EF04F0D7EF04F02EEF05F0C00E79
:1009B000096E200E59EC0FF0C10E096E200E59EC95
:1009C0000FF0C20E096E200E59EC0FF0C30E096E27
:1009D0003A0E59EC0FF0C40E096E3AC001F0026AEB
:1009E000000E046E0A0E036E79EC0BF00150300F0E
:1009F00059EC0FF0C50E096E3AC001F0026A000E04
:100A0000046E0A0E036EDAEC0BF00150300F59EC55
:100A10000FF0C60E096E3A0E59EC0FF0C70E096EB4
:100A200039C001F0026A000E046E0A0E036E79EC02
:100A30000BF00150300F59EC0FF0C80E096E39C0A1
:100A400001F0026A000E046E0A0E036EDAEC0BF07F
:100A50000150300F59EC0FF0EDEF05F03704D8A43A
:100A600034EF05F036EF05F08DEF05F0C00E096E9E
:100A7000200E59EC0FF0C10E096E3BC001F0026A66
:100A8000000E046E0A0E036E79EC0BF00150300F6D
:100A900059EC0FF0C20E096E3BC001F0026A000E65
:100AA000046E0A0E036EDAEC0BF00150300F59ECB5
:100AB0000FF0C30E096E3A0E59EC0FF0C40E096E1A
:100AC000200E59EC0FF0C50E096E200E59EC0FF0F8
:100AD000C60E096E3A0E59EC0FF0C70E096E39C0FA
:100AE00001F0026A000E046E0A0E036E79EC0BF040
:100AF0000150300F59EC0FF0C80E096E39C001F0EB
:100B0000026A000E046E0A0E036EDAEC0BF001505E
:100B1000300F59EC0FF0EDEF05F0020E3718D8A4A6
:100B200094EF05F096EF05F0EDEF05F0C00E096EBD
:100B3000200E59EC0FF0C10E096E3BC001F0026AA5
:100B4000000E046E0A0E036E79EC0BF00150300FAC
:100B500059EC0FF0C20E096E3BC001F0026A000EA4
:100B6000046E0A0E036EDAEC0BF00150300F59ECF4
:100B70000FF0C30E096E3A0E59EC0FF0C40E096E59
:100B80003AC001F0026A000E046E0A0E036E79ECA0
:100B90000BF00150300F59EC0FF0C50E096E3AC042
:100BA00001F0026A000E046E0A0E036EDAEC0BF01E
:100BB0000150300F59EC0FF0C60E096E3A0E59EC89
:100BC0000FF0C70E096E200E59EC0FF0C80E096E1B
:100BD000200E59EC0FF0EDEF05F0E80E261809E1B4
:100BE000030E271828102910D8A4F9EF05F0FBEF01
:100BF00005F003EF06F0000E266E000E276E000EC5
:100C0000286E000E296E1200810E036E0350D8A4C8
:100C1000060E046E800E056E3FEC0DF0720E036E34
:100C20000350D8A4060E046E840E056E3FEC0DF042
:100C30007B0E036E0350D8A4060E046E8B0E056E59
:100C40003FEC0DF07E0E036E0350D8A4060E046E2A
:100C50008E0E056E3FEC0DF0270E036E0350D8A4E8
:100C6000060E046EC00E056E3FEC0DF0010E05EC95
:100C70000DF0146E020E1418D8A441EF06F043EFE5
:100C800006F067EF06F03FC001F0026A000E046E46
:100C90000A0E036E79EC0BF0FF0E01240B6EFF0EB3
:100CA00002200C6E3D500D6E0E6A0B500D5C0E5006
:100CB000800A0F6E0C50800A0F58D8B062EF06F011
:100CC00064EF06F078EF06F03D2A78EF06F01404A2
:100CD000D8A46DEF06F06FEF06F078EF06F03D5008
:100CE000D8B475EF06F077EF06F078EF06F03D0622
:100CF0003F50D8A47EEF06F080EF06F0BDEF06F07F
:100D0000150E036E0350D8A4060E046E800E056EF9
:100D10003FEC0DF0270E036E0350D8A4060E046EB0
:100D2000C00E056E3FEC0DF0200E106EA10E116E80
:100D3000070E126E000E136E1006000E115A125A94
:100D4000135A10280AE1112808E1122806E1132895
:100D5000D8A4ADEF06F0AFEF06F09CEF06F0010E61
:100D6000406E270E036E0350D8A4060E046E800E4C
:100D7000056E3FEC0DF04FEF07F00C0E1418D8A4E1
:100D8000C4EF06F0C6EF06F0CEEF06F03D6A010EA6
:100D9000406E000E016E010EBBEC0EF0C00E096E2F
:100DA0003D50300F59EC0FF0C10E096E200E59EC7A
:100DB0000FF0C20E096E3D500A0DF35008EC0FF013
:100DC00059EC0FF0C30E096E3D500A0DF32808ECE4
:100DD0000FF059EC0FF0C40E096E3A0E59EC0FF0FB
:100DE000C50E096E3D500A0DF350020F08EC0FF0CE
:100DF00059EC0FF0C60E096E3D500A0DF350030F6B
:100E000008EC0FF059EC0FF0C70E096E3A0E59ECD2
:100E10000FF0C80E096E3D500A0DF350040F08EC98
:100E20000FF059EC0FF0C90E096E3D500A0DF3504A
:100E3000050F08EC0FF059EC0FF0CA0E096E200EEA
:100E400059EC0FF0CB0E096E3D500A0DF350060F12
:100E500008EC0FF059EC0FF0CC0E096E3D500A0D66
:100E6000F350070F08EC0FF059EC0FF0CD0E096EA0
:100E7000200E59EC0FF0CE0E096E3D500A0DF350C6
:100E8000080F08EC0FF059EC0FF0CF0E096E3D5033
:100E90000A0DF350090F08EC0FF059EC0FF0120097
:100EA000410E046E07EC0BF0040E78EC0EF001C05E
:100EB00008F002C009F0000E0B6E0A0E0A6ECBECB1
:100EC0000CF008C033F009C034F034BE71EF07F005
:100ED000345009E1640E335CD8A071EF07F073EF72
:100EE00007F077EF07F0000E346E630E336E720E6C
:100EF000036E0350D8A4060E046E820E056E3FECFE
:100F00000DF0410E036E046AC00E056E3FEC0DF04D
:100F1000770E036E0350D8A4060E046E8A0E056E7B
:100F20003FEC0DF03550030DF350A00F196E19C0B2
:100F300003F0046ACA0E056E3FEC0DF07E0E036EE0
:100F40000350D8A4060E046E8E0E056E3FEC0DF015
:100F5000CE0E096E33C001F034C002F0000E046EF4
:100F60000A0E036E79EC0BF00150300F59EC0FF0C4
:100F7000CF0E096E33C001F034C002F0000E046ED3
:100F80000A0E036EDAEC0BF00150300F59EC0FF043
:100F9000010E05EC0DF01A6E1A04D8A4D2EF07F07A
:100FA000D4EF07F0E7EF07F0365007E1080E355CA5
:100FB000D8B0DDEF07F0DFEF07F03BEF08F0354A80
:100FC000362A410E0A6EE1EC09F03BEF08F0020E02
:100FD0001A18D8A4EEEF07F0F0EF07F010EF08F0C2
:100FE000080E35183610D8A4F8EF07F0FAEF07F01E
:100FF00000EF08F0000E366E010E356E3BEF08F084
:10100000365009E1020E355CD8A009EF08F00BEF6D
:1010100008F03BEF08F03506D8A03606E1EF07F000
:10102000030E1A18D8A417EF08F019EF08F01FEFF5
:1010300008F0000E366E080E356EE1EF07F00B0E6D
:101040001A18D8A426EF08F028EF08F031EF08F0BE
:10105000010E406E000E016E010EBBEC0EF03BEF78
:1010600008F00C0E1A18D8A438EF08F03AEF08F080
:101070003BEF08F0406A12002F50100DF350600F44
:101080000B6E0BC003F0046A820E056E3FEC0DF090
:101090002F50100DF350700F0B6E0BC003F0046A4D
:1010A000C20E056E3FEC0DF0010E05EC0DF00F6E5B
:1010B0002D502E10D8A45FEF08F061EF08F06DEF0F
:1010C00008F0800E096E2A0E59EC0FF0C00E096E62
:1010D000200E59EC0FF077EF08F0C00E096E2A0EC3
:1010E00059EC0FF0800E096E200E59EC0FF00F0432
:1010F000D8A47DEF08F07FEF08F09CEF08F02D04F6
:101100002E10D8A486EF08F088EF08F08EEF08F0D4
:10111000000E2E6E000E2D6E27EF09F02F503010AE
:10112000D8B495EF08F097EF08F027EF09F02F06F5
:10113000D8A0300627EF09F0020E0F18D8A4A3EFAD
:1011400008F0A5EF08F0C3EF08F02D502E10D8A43A
:10115000ACEF08F0AEEF08F0B4EF08F0000E2E6E22
:10116000010E2D6E27EF09F0305007E1020E2F5CC3
:10117000D8B0BDEF08F0BFEF08F027EF09F02F4A15
:10118000302A27EF09F00C0E0F18D8A4CAEF08F088
:10119000CCEF08F0D4EF08F0406A000E016E010EAB
:1011A000BBEC0EF027EF09F00B0E0F18D8A4DBEF05
:1011B00008F0DDEF08F027EF09F02D502F240D6E19
:1011C0002E5030200E6E09EF09F0020E406E000E18
:1011D000016E010EBBEC0EF027EF09F0050E406E1C
:1011E000000E016E010EBBEC0EF027EF09F0040EAD
:1011F000406E000E016E010EBBEC0EF027EF09F001
:10120000030E406E000E016E010EBBEC0EF027EFD8
:1012100009F00DC00BF00EC00CF00C50000AD8B451
:1012200014EF09F027EF09F00B50000AD8B4E5EFEE
:1012300008F0010AD8B4EEEF08F0030AD8B4F7EFCB
:1012400008F0010AD8B400EF09F027EF09F0120006
:101250005F0E036E0350D8A4060E046E810E056E59
:101260003FEC0DF0380E036E0350D8A4060E046E4A
:10127000C20E056E3FEC0DF0010E026E0250D8A4B6
:10128000060E036E75EC0DF0A2EF09F03C50300F26
:10129000106E200E116E3C500A0DF35008EC0FF04A
:1012A000126E3C500A0DF32808EC0FF0136E3A0E44
:1012B000146E3C500A0DF350020F08EC0FF0156E3F
:1012C0003C500A0DF350030F08EC0FF0166E3A0E67
:1012D000176E3C500A0DF350040F08EC0FF0186E17
:1012E0003C500A0DF350050F08EC0FF0196E200E5C
:1012F0001A6E3C500A0DF350060F08EC0FF01B6EEF
:101300003C500A0DF350070F08EC0FF01C6E200E36
:101310001D6E3C500A0DF350080F08EC0FF01E6EC6
:101320003C500A0DF350090F08EC0FF01F6E0A0E27
:10133000206E0D0E216E226A100E026E036A75EC8D
:101340000DF03C2A3FC001F0026A000E046E0A0E46
:10135000036E79EC0BF03C50096E0A6A0150095C8F
:101360000A50800A0B6E0250800A0B58D8A0BBEFBF
:1013700009F0BDEF09F046EF09F0200E0C6EA10E4A
:101380000D6E070E0E6E000E0F6E0C06000E0D5A3F
:101390000E5A0F5A0C280AE10D2808E10E2806E122
:1013A0000F28D8A4D6EF09F0D8EF09F0C5EF09F05F
:1013B000010E406E000E016E010EBBEC0EF03C6A99
:1013C00012005A0E3F64E7EF09F0E9EF09F0FFEF72
:1013D00009F03F6A590E3F64F0EF09F0F2EF09F0AF
:1013E000F4EF09F0FFEF09F03F500A0F08EC0FF09F
:1013F000046E3F502AEC0EF03F2AEAEF09F00A5043
:10140000D96EDA6ADF500B6E0A50D96EDA6A010EB5
:10141000D926DF500C6E0A50D96EDA6A030ED9262F
:10142000DF500D6E0A50D96EDA6A040ED926DF50ED
:101430000E6E0A50D96EDA6A060ED926DF500F6E8C
:101440000A50D96EDA6A070ED926DF50106E355071
:10145000030DF350A00FD96EDA6ADF50116E3550CC
:10146000030DF350A10FD96EDA6ADF50126E34BE4D
:101470003CEF0AF03EEF0AF044EF0AF033C015F0FB
:1014800034C016F048EF0AF0000E166E000E156E0E
:1014900015C001F016C002F0000E046E0A0E036EB5
:1014A00079EC0BF00150300F136E15C001F016C02F
:1014B00002F0000E046E0A0E036EDAEC0BF001501F
:1014C000300F146E000E186E000E176E17500B0FB3
:1014D000D96EDA6ADF50046E3F5017242AEC0EF002
:1014E000174A182A18BE7EEF0AF0185009E10A0EB2
:1014F000175CD8A07EEF0AF080EF0AF066EF0AF0E2
:101500000A0E3F261200819A818C818E81B28BEF68
:101510000AF08DEF0AF090EF0AF0010E06EF0BF0E3
:1015200081B495EF0AF097EF0AF09AEF0AF0040EF3
:1015300006EF0BF081B69FEF0AF0A1EF0AF0A4EFDF
:101540000AF0070E06EF0BF081B8A9EF0AF0ABEF37
:101550000AF0AEEF0AF00A0E06EF0BF0818A819CCA
:10156000818E81B2B6EF0AF0B8EF0AF0BBEF0AF055
:10157000020E06EF0BF081B4C0EF0AF0C2EF0AF0E2
:10158000C5EF0AF0050E06EF0BF081B6CAEF0AF0C0
:10159000CCEF0AF0CFEF0AF0080E06EF0BF081B89F
:1015A000D4EF0AF0D6EF0AF0D9EF0AF00B0E06EFEF
:1015B0000BF0818A818C819E819E81B2E2EF0AF0DC
:1015C000E4EF0AF0E7EF0AF0030E06EF0BF081B448
:1015D000ECEF0AF0EEEF0AF0F1EF0AF0060E06EF7C
:1015E0000BF081B6F6EF0AF0F8EF0AF0FBEF0AF025
:1015F000090E06EF0BF081B800EF0BF002EF0BF0D5
:1016000005EF0BF00C0E06EF0BF0000E1200020EB1
:10161000F3EC0EF02A6E010EF3EC0EF02B6E000EC2
:10162000F3EC0EF02C6E2AAC18EF0BF01AEF0BF067
:101630002DEF0BF00450D96EDA6A2A380F0B010B2C
:10164000300FDF6E0450D96EDA6A010ED9262A50A7
:101650000F0B300FDF6E3EEF0BF00450D96EDA6ADD
:101660002A380F0B030B300FDF6E0450D96EDA6A85
:10167000010ED9262A500F0B300FDF6E0450D96EA1
:10168000DA6A020ED9263A0EDF6E0450D96EDA6A93
:10169000030ED9262B380F0B0F0B300FDF6E0450C3
:1016A000D96EDA6A040ED9262B500F0B300FDF6E7D
:1016B0000450D96EDA6A050ED9263A0EDF6E045050
:1016C000D96EDA6A060ED9262C380F0B0F0B300FA5
:1016D000DF6E0450D96EDA6A070ED9262C500F0B34
:1016E000300FDF6E0450D96EDA6A080ED926DF6A31
:1016F0001200066A04BE81EF0BF07FEF0BF087EF5C
:101700000BF0036C041ED8B0042A010E066E02BE54
:101710008EEF0BF08CEF0BF094EF0BF0016C021ED0
:10172000D8B0022A010E061A000E086E000E076ECF
:1017300003500410D8B49FEF0BF0A1EF0BF0C9EFEA
:101740000BF0010E056EA9EF0BF0D89003360436AE
:10175000052A04AEAEEF0BF0B0EF0BF0A5EF0BF0E7
:10176000D890073608360350015C04500258D8A0C0
:10177000BCEF0BF0BEEF0BF0C3EF0BF00350015EBC
:101780000450025A0780D89004320332052EB0EF7D
:101790000BF00650D8B4CFEF0BF0D1EF0BF0D5EF34
:1017A0000BF0076C081ED8B0082A07C001F008C06B
:1017B00002F01200066A02BEE2EF0BF0E0EF0BF05F
:1017C000E8EF0BF0016C021ED8B0022A010E066E83
:1017D00004BEEFEF0BF0EDEF0BF0F3EF0BF0036C4B
:1017E000041ED8B0042A03500410D8B4FAEF0BF04A
:1017F000FCEF0BF020EF0CF0010E056E04EF0CF087
:10180000D89003360436052A04AE09EF0CF00BEF2E
:101810000CF000EF0CF00350015C04500258D8A00B
:1018200014EF0CF016EF0CF01AEF0CF00350015E01
:101830000450025AD89004320332052E0BEF0CF0FC
:101840000650D8B426EF0CF028EF0CF02CEF0CF07B
:10185000016C021ED8B0022A01C001F002C002F0E1
:101860001200956A9450F80B946E8290C30E036E2A
:10187000CD0EE82EFED7032EFCD70000000E016E21
:10188000330EBBEC0EF01B0E036E9E0EE82EFED741
:10189000032EFCD700D0000E016E330EBBEC0EF011
:1018A000A60EE82EFED700D0000E016E330EBBEC64
:1018B0000EF000D000D00000000E016E020EBBEC56
:1018C0000EF0A60EE82EFED700D0000E016E380EE8
:1018D000BBEC0EF0A60EE82EFED700D0000E016E77
:1018E000010EBBEC0EF0040E036E3E0EE82EFED78A
:1018F000032EFCD7000E016E0C0EBBEC0EF0A60EF4
:10190000E82EFED700D012003DEC0FF0410E046E21
:1019100007EC0BF0A4EF0CF050EC07F086EF0CF0A6
:101920003CEC08F086EF0CF004EC06F086EF0CF0CF
:1019300028EC09F086EF0CF0FEEC0DF086EF0CF0D1
:1019400042EC03F086EF0CF04050246E256A2550DF
:10195000000AD8B4AEEF0CF086EF0CF02450000A69
:10196000D8B48CEF0CF0010AD8B490EF0CF0030A55
:10197000D8B494EF0CF0010AD8B4A0EF0CF0070A29
:10198000D8B498EF0CF0010AD8B49CEF0CF086EFB5
:101990000CF007EF00F0000E0D6E000E0C6E0A50FA
:1019A0000B10D8B4D6EF0CF0D8EF0CF000EF0DF020
:1019B000010E0E6EE0EF0CF0D8900A360B360E2AB0
:1019C0000BAEE5EF0CF0E7EF0CF0DCEF0CF0D8908D
:1019D0000C360D360A50085C0B500958D8A0F3EFAE
:1019E0000CF0F5EF0CF0FAEF0CF00A50085E0B501B
:1019F000095A0C80D8900B320A320E2EE7EF0CF009
:101A00000CC008F00DC009F01200016E0150D8A4FE
:101A10000CEF0DF00EEF0DF012EF0DF083EC0AF06D
:101A20003EEF0DF00104D8A418EF0DF01AEF0DF001
:101A30003DEF0DF083EC0AF0026E0250D8B423EFB4
:101A40000DF025EF0DF031EF0DF04A50D8B42BEF2B
:101A50000DF02DEF0DF031EF0DF04A6A02503EEF20
:101A60000DF00250D8A437EF0DF039EF0DF03DEF37
:101A70000DF0010E4A6E3DEF0DF0000E1200000E4B
:101A8000016E0550BBEC0EF05CEF0DF0010E016E27
:101A900003C0F6FF04C0F7FFF86A050EF76403D031
:101AA0000800F55005D0F6CFD9FFF7CFDAFFDF50A9
:101AB000BBEC0EF0034A042A03C0F6FF04C0F7FF94
:101AC000F86A050EF76403D00800F55005D0F6CF8C
:101AD000D9FFF7CFDAFFDF500009D8A472EF0DF07D
:101AE00074EF0DF046EF0DF012008BEF0DF002C019
:101AF000F6FF03C0F7FFF86A050EF76403D008008D
:101B0000F55005D0F6CFD9FFF7CFDAFFDF5070ECF4
:101B10000FF0024A032A02C0F6FF03C0F7FFF86A7B
:101B2000050EF76403D00800F55005D0F6CFD9FFB5
:101B3000F7CFDAFFDF500009D8A4A1EF0DF0A3EF33
:101B40000DF077EF0DF01200566965775F6C6F67E7
:101B50002020202020200000436C6561725F6C6FA4
:101B60006720202020200000446F776E6C6F616436
:101B70005F6C6F67202000005365745F74696D654A
:101B800020202020202000004F4E00474E004731EB
:101B900000473200473300473400473500475200C2
:031BA000434300BC
:101BA400480EF66E1B0EF76E000EF86E00EE60F037
:101BB40010EE5BF00900F5CFEEFFE550E150FAE1DD
:101BC400520EF66E1F0EF76E000EF86E0900F5CF7A
:101BD4004AF001EE00F0A00EEE6AE806FDE100EE28
:101BE40026F0240EEE6AE806FDE14B904B92000EBF
:101BF400F86E000184EF0CF0D8EC0EF03F6A480E4A
:101C0400036E0350D8A4060E046E800E056E3FECDE
:101C14000DF06A0E036E0350D8A4060E046EC40EB3
:101C2400056E3FEC0DF0010E05EC0DF00C6E0C0E84
:101C34000C18D8A420EF0EF022EF0EF029EF0EF0CE
:101C4400010E406E000E016E010EBBEC0EF0120090
:101C5400096EA2EC0FF0A00E90EC0FF0095090EC7E
:101C64000FF0045090EC0FF09EEC0FF0B80E056EE0
:101C74000B0E066E000E076E000E086E0506000EB3
:101C8400065A075A085A05280AE1062808E10728CF
:101C940006E10828D8A451EF0EF053EF0EF040EF00
:101CA4000EF01200000EF3EC0EF0046E04508009E6
:101CB400026E000E2EEC0FF0020EF3EC0EF0046E2A
:101CC40004504009026E020E2EEC0FF0930E026EC9
:101CD400070E2EEC0FF0000EF3EC0EF0046E045021
:101CE4007F0B026E000E2EEC0FF01200076E07C081
:101CF40003F0D8900336D8900336C250C30B0310B8
:101D0400C26EC282C2B289EF0EF08BEF0EF084EF86
:101D14000EF0C350C4CF03F0046A03C004F0036A96
:101D24000310056E0450066E05C001F006C002F0F3
:101D3400120006009EA2A1EF0EF0A3EF0EF0B9EF81
:101D44000EF0CC50080FCC6E314A322A210E3118D5
:101D540007E14E0E3218D8A4B2EF0EF0B4EF0EF035
:101D6400B8EF0EF0000E326E000E316E9E924B9262
:101D74001100026E01B0C1EF0EF0C4EF0EF08282CA
:101D8400C5EF0EF0829202C083FF82848294958E06
:101D9400828082928284829483BED3EF0EF0D5EF48
:101DA4000EF0CCEF0EF08290959E1200000E0B6E9A
:101DB400000E0A6EFF0E046E3E502AEC0EF03E2A10
:101DC4000A4A0B2A0BBEF0EF0EF00B5009E10A0E83
:101DD4000A5CD8A0F0EF0EF0F2EF0EF0DCEF0EF09C
:101DE4001200026EA2EC0FF0D00E90EC0FF0025035
:101DF40090EC0FF096EC0FF0D10E90EC0FF08AEC13
:101E04000FF0036E9EEC0FF003501200026EA2EC72
:101E14000FF0A00E90EC0FF0025090EC0FF096EC47
:101E24000FF0A10E90EC0FF08AEC0FF0036E9EEC15
:101E34000FF003501200948E949CAC9CAC8AAC9826
:101E4400AC96AC84AB8EAB9CAB88B89EB896B8927B
:101E5400B890810EAF6E1200036EA2EC0FF0D00E9C
:101E640090EC0FF0035090EC0FF0025090EC0FF058
:101E74009EEC0FF0120031EC0CF084EC0FF04BEC04
:101E84000FF065EC0FF054EC0EF01DEC0FF0406A0F
:101E94001200C08EC09AC088C096C090C082C09400
:101EA400C292C19AC198C46AC36AC28012000A6EFF
:101EB400000E016E0950BBEC0EF0010E016E0A50CB
:101EC400BBEC0EF0120094869488280EC66E310E78
:101ED400C86EC79CC78E9E96A1961200016E9EA8DE
:101EE40076EF0FF078EF0FF071EF0FF001C0ADFF58
:101EF40012009EA680EF0FF082EF0FF07BEF0FF041
:101F04009E9612001E0E936EE00E816EF19E1200DC
:101F14009AEC0FF0A6EC0FF0C9501200016E01C04C
:101F2400C9FF7BEC0FF01200C5827BEC0FF01200AE
:101F3400C5867BEC0FF01200C5847BEC0FF0120019
:0F1F4400C5807BEC0FF01200C58AC58812000122
:020000040020DA
:08000000FFFFFFFFFFFFFFFF00
:020000040030CA
:0E000000FF071F1FFF8285FF0FC00FE00F409C
:00000001FF
